{
  "contractName": "Splitter",
  "abi": [
    {
      "constant": true,
      "inputs": [],
      "name": "owner",
      "outputs": [
        {
          "name": "",
          "type": "address"
        }
      ],
      "payable": false,
      "stateMutability": "view",
      "type": "function",
      "signature": "0x8da5cb5b"
    },
    {
      "inputs": [],
      "payable": false,
      "stateMutability": "nonpayable",
      "type": "constructor",
      "signature": "constructor"
    },
    {
      "anonymous": false,
      "inputs": [
        {
          "indexed": true,
          "name": "sender",
          "type": "address"
        },
        {
          "indexed": true,
          "name": "receiver1",
          "type": "address"
        },
        {
          "indexed": true,
          "name": "receiver2",
          "type": "address"
        },
        {
          "indexed": false,
          "name": "amount",
          "type": "uint256"
        }
      ],
      "name": "LogSplit",
      "type": "event",
      "signature": "0x5861cc23de8cab7630160dc0ee2c1e9aa2a0f1498f73c387807c0100e6684da7"
    },
    {
      "constant": false,
      "inputs": [
        {
          "name": "bobAddr",
          "type": "address"
        },
        {
          "name": "carolAddr",
          "type": "address"
        }
      ],
      "name": "split",
      "outputs": [],
      "payable": true,
      "stateMutability": "payable",
      "type": "function",
      "signature": "0x0f2c9329"
    }
  ],
  "bytecode": "0x608060405234801561001057600080fd5b50336000806101000a81548173ffffffffffffffffffffffffffffffffffffffff021916908373ffffffffffffffffffffffffffffffffffffffff16021790555061031e806100606000396000f3fe60806040526004361061004c576000357c0100000000000000000000000000000000000000000000000000000000900463ffffffff1680630f2c9329146100515780638da5cb5b146100b5575b600080fd5b6100b36004803603604081101561006757600080fd5b81019080803573ffffffffffffffffffffffffffffffffffffffff169060200190929190803573ffffffffffffffffffffffffffffffffffffffff16906020019092919050505061010c565b005b3480156100c157600080fd5b506100ca6102cd565b604051808273ffffffffffffffffffffffffffffffffffffffff1673ffffffffffffffffffffffffffffffffffffffff16815260200191505060405180910390f35b600073ffffffffffffffffffffffffffffffffffffffff168273ffffffffffffffffffffffffffffffffffffffff161415151561014857600080fd5b600073ffffffffffffffffffffffffffffffffffffffff168173ffffffffffffffffffffffffffffffffffffffff161415151561018457600080fd5b60003411151561019357600080fd5b6000339050600034905060006002828115156101ab57fe5b04905080600160008773ffffffffffffffffffffffffffffffffffffffff1673ffffffffffffffffffffffffffffffffffffffff16815260200190815260200160002060008282540192505081905550808203600160008673ffffffffffffffffffffffffffffffffffffffff1673ffffffffffffffffffffffffffffffffffffffff168152602001908152602001600020600082825401925050819055508373ffffffffffffffffffffffffffffffffffffffff168573ffffffffffffffffffffffffffffffffffffffff168473ffffffffffffffffffffffffffffffffffffffff167f5861cc23de8cab7630160dc0ee2c1e9aa2a0f1498f73c387807c0100e6684da7856040518082815260200191505060405180910390a45050505050565b6000809054906101000a900473ffffffffffffffffffffffffffffffffffffffff168156fea165627a7a72305820cc17ee8f916f3958edb7fd46a3a22041c2df1ce582681dbc3d61c8051cdd66d20029",
  "source": "pragma solidity >=0.5.0 <=0.6.0;\n\n\ncontract Splitter {\n\taddress public owner;\n\n\t//address public bob;\n\t//address public carol;\n\n\tmapping(address => uint) balances;\n\n\tevent LogSplit(address indexed sender, address indexed receiver1, address indexed receiver2, uint amount);\n\n\tconstructor() public {\n\t\towner = msg.sender;\n\t}\n\n\tfunction split(address bobAddr, address carolAddr) payable public {\n\n\t\trequire(bobAddr != address(0x0));\n\t\trequire(carolAddr != address(0x0));\n\t\trequire(msg.value > 0);\n\n\t\taddress aliceAddr = msg.sender;\n\t\tuint aliceBal = msg.value;\n\n\t\tuint half = aliceBal/2;\n\t\tbalances[bobAddr] += half;\n\t\tbalances[carolAddr] += aliceBal - half;\n\t\temit LogSplit(aliceAddr,bobAddr,carolAddr,aliceBal);\n\t}\n\n}",
  "sourcePath": "/home/eagle/DAPPS/b9lab-eth/splitter/contracts/Splitter.sol",
  "compiler": {
    "name": "solc",
    "version": "0.5.0+commit.1d4f565a.Emscripten.clang"
  },
  "schemaVersion": "3.0.1",
  "updatedAt": "2019-02-26T02:25:14.799Z",
  "devdoc": {
    "methods": {}
  },
  "userdoc": {
    "methods": {}
  }
}